:100000000C9473000C9472020C944B020C949B00A1
:100010000C949B000C949B000C949B000C949902F4
:100020000C949B000C949B000C949B000C949B00E4
:100030000C949B000C949B000C949B000C949B00D4
:100040000C9401020C949B000C941B030C94F5027D
:100050000C949B000C949B000C949B000C949B00B4
:100060000C949B000C949B00005EBCE2613FDD831E
:10007000C29C7E20A3FD1F41009D23BE46DB65F888
:100080008C11AF32CA57E974000000002400270029
:100090002A0000000008000201000003040700001D
:1000A00000000000000000000000250028002B00D8
:1000B00002000000002300260029000404040404B8
:1000C0000404040202020202020303030303030105
:1000D00002040810204080010204081020010204DC
:1000E00008102000780F11241FBECFEFD8E0DEBF2C
:1000F000CDBF13E0A0E0B1E0EEE8F5E202C005906C
:100100000D92A03EB107D9F724E0A0EEB3E001C004
:100110001D92AE3DB207E1F710E0C3E7D0E004C0A6
:100120002197FE010E947E10C237D107C9F70E94B5
:10013000F90A0C94C5120C94000008950895CF920A
:10014000DF92EF92FF920F931F93CF93DF936C0197
:100150007A018B01C0E0D0E0CE15DF0581F0D80137
:100160006D918D01D601ED91FC910190F081E02D12
:10017000C6010995892B11F02196EECF7E01C701AA
:10018000DF91CF911F910F91FF90EF90DF90CF9073
:100190000895089580E090E00895FC01538D448D0A
:1001A000252F30E0842F90E0821B930B541710F022
:1001B000CF96089501970895FC01918D828D98172F
:1001C00061F0828DDF01A80FB11D5D968C91928D3B
:1001D0009F5F9F73928F90E008958FEF9FEF089538
:1001E000FC01918D828D981731F0828DE80FF11D01
:1001F000858D90E008958FEF9FEF0895FC01918D1C
:10020000228D892F90E0805C9F4F821B91098F7314
:100210009927089580E094E00E94FE0021E0892B58
:1002200009F420E0822F0895FC01848DDF01A80FDE
:10023000B11DA35ABF4F2C91848D90E001968F730E
:100240009927848FA689B7892C93A089B1898C912D
:10025000837080648C93938D848D981306C002887C
:10026000F389E02D80818F7D80830895EF92FF9246
:100270000F931F93CF93DF93EC0181E0888F9B8DC9
:100280008C8D981305C0E889F989808185FD26C089
:10029000F62E0B8D10E00F5F1F4F0F731127E02E0E
:1002A0008C8DE8120CC00FB607FCFACFE889F989EB
:1002B000808185FFF5CFCE010E941401F1CF8B8D97
:1002C000FE01E80FF11DE35AFF4FF0829FB7F8944B
:1002D0000B8FEA89FB89808180620AC09FB7F894FE
:1002E000EE89FF896083E889F98980818370806461
:1002F00080839FBF81E090E0DF91CF911F910F91AC
:10030000FF90EF900895CF93DF93EC01888D8823C1
:10031000C9F0EA89FB89808185FD05C0A889B98972
:100320008C9186FD0FC00FB607FCF5CF808185FF4D
:10033000F2CFA889B9898C9185FFEDCFCE010E94BB
:100340001401E7CFDF91CF91089580E090E0892BF1
:1003500029F00E940A0181110C94000008959091E7
:100360000701891324C0E0EBF0E0E4919FEF909344
:100370000701E130B9F098F0E230C9F490917000D3
:100380009D7F9093700091E09093B0009091B100A8
:10039000987F94609093B1001092B30008C01092BF
:1003A0006E0005C090916F009D7F90936F0060E09C
:1003B0000C9436070E94C0123FB7F8948091F10365
:1003C0009091F203A091F303B091F40326B5A89B9A
:1003D00005C02F3F19F00196A11DB11D3FBFBA2FD7
:1003E000A92F982F8827820F911DA11DB11DBC0137
:1003F000CD0142E0660F771F881F991F4A95D1F7FC
:1004000008951F920F920FB60F9211242F933F93CE
:100410008F939F93AF93BF938091F5039091F603D1
:10042000A091F703B091F8033091F00323E0230F7C
:100430002D3720F40196A11DB11D05C026E8230F1C
:100440000296A11DB11D2093F0038093F5039093B4
:10045000F603A093F703B093F8038091F103909112
:10046000F203A091F303B091F4030196A11DB11D15
:100470008093F1039093F203A093F303B093F403FA
:10048000BF91AF919F918F913F912F910F900FBE90
:100490000F901F9018951F920F920FB60F92112474
:1004A0002F933F934F935F936F937F938F939F937C
:1004B000AF93BF93EF93FF93E0910201F09103019B
:1004C0000995FF91EF91BF91AF919F918F917F918E
:1004D0006F915F914F913F912F910F900FBE0F90B1
:1004E0001F9018951F920F920FB60F9211242F9301
:1004F0003F934F935F936F937F938F939F93AF93AC
:10050000BF93EF93FF93E0910001F09101010995F2
:10051000FF91EF91BF91AF919F918F917F916F91DB
:100520005F914F913F912F910F900FBE0F901F90B1
:1005300018951F920F920FB60F9211242F933F938D
:100540004F935F936F937F938F939F93AF93BF93DB
:10055000EF93FF938091FC039091FD03A091FE0324
:10056000B091FF03892B8A2B8B2B51F19091F903CA
:10057000E091FA03F091FB038081892780838091C9
:10058000FC039091FD03A091FE03B091FF031816A8
:1005900019061A061B06C4F48091FC039091FD0312
:1005A000A091FE03B091FF030197A109B1098093C7
:1005B000FC039093FD03A093FE03B093FF0304C0DC
:1005C000809107010E94AF01FF91EF91BF91AF9120
:1005D0009F918F917F916F915F914F913F912F915B
:1005E0000F900FBE0F901F9018951F920F920FB68D
:1005F0000F9211242F933F934F935F936F937F93A9
:100600008F939F93AF93BF93EF93FF9380E094E01A
:100610000E941401FF91EF91BF91AF919F918F9133
:100620007F916F915F914F913F912F910F900FBEEE
:100630000F901F9018951F920F920FB60F921124D2
:100640002F938F939F93EF93FF93E0911004F0917A
:1006500011048081E0911604F091170482FD12C00C
:100660009081809119048F5F8F7320911A048217F3
:1006700051F0E0911904F0E0E050FC4F958F809329
:10068000190401C08081FF91EF919F918F912F916B
:100690000F900FBE0F901F901895DC0180E0615005
:1006A00098F02D91982F9227E92FEF70F0E0E859FC
:1006B000FF4F249192959F70E92FF0E0E858FF4F8B
:1006C000E491822F8E27EBCF0895FC019081018069
:1006D000F281E02DF8948181892B81832281892FF9
:1006E000809528232283A7E0B0E01197F1F72181BC
:1006F00082238183A3E2B0E01197F1F7808178949F
:10070000EFECF0E03197F1F7982381E009F480E015
:100710000895FC0190810180F281E02D892F809560
:1007200060FF12C0F8942281822382838181892B09
:100730008183A3E2B0E01197F1F78281982B928335
:10074000789487ED90E011C0F8942281822382830F
:100750008181892B8183AFEFB0E01197F1F782811E
:10076000982B928378948FE090E00197F1F70895A9
:10077000DF92EF92FF920F931F93CF93DF93EC01E1
:10078000D62EE42E08E010E0FF24F39461E08D2DD6
:100790008F2109F460E0CE010E948903FF0C015013
:1007A0001109A1F7E11010C0F894E981FA81918153
:1007B0008881809589238183E981FA81928188816A
:1007C0008095892382837894DF91CF911F910F9137
:1007D000FF90EF90DF900895EF92FF920F931F9399
:1007E000CF93DF938C017B0140E065E50E94B80365
:1007F000E70188E0E80EF11C699140E0C8010E9421
:10080000B803CE15DF05C1F7DF91CF911F910F918E
:10081000FF90EF900895DC012C911196ED91FC91E1
:100820001297F8948181922F9095892381837894EF
:100830008DE743E050E0815021F1DA011197F1F7A3
:1008400030813223C1F3F8948281892382838181AC
:10085000822B81837894ABE7B7E01197F1F7F89496
:1008600081819823918383E191E00197F1F7808161
:10087000282381E009F080E07894E3E6F6E0319700
:10088000F1F70895CF92DF92EF92FF92CF93DF932B
:10089000B091A404882311F0AB2F01C0A0E0809197
:1008A000A50490E0880F991F8F549F4FC090AA0411
:1008B000D090AB04E090AC04F090AD0420E030E0C8
:1008C000FC01C591D491E881EB23A90160E070E0BF
:1008D000EA130CC02F5F3F4F4C155D056E057F0579
:1008E00078F33FEF2FEF8FEF9FEF03C0322F252FCD
:1008F000CB01632F722FDF91CF91FF90EF90DF90AC
:10090000CF900895833081F028F4813099F08230BF
:10091000A1F008958730A9F08830B9F08430D1F47F
:10092000809180008F7D03C0809180008F778093BD
:100930008000089584B58F7702C084B58F7D84BD13
:1009400008958091B0008F7703C08091B0008F7DB3
:100950008093B0000895009769F0FC010190002099
:10096000E9F73197AF01481B590BBC0180E094E0D7
:100970000C949F0080E090E00895CF93DF930E9455
:10098000AB04EC0181ED93E00E94AB048C0F9D1F42
:10099000DF91CF9108956F927F928F929F92AF9245
:1009A000BF92CF92DF92EF92FF920F931F93CF935C
:1009B000DF938C01EB018091B8049091B9040E94FF
:1009C0000B04882309F447C0B8018091B8049091C2
:1009D000B9040E94EC0340E06EEB8091B804909162
:1009E000B9040E94B8038E016E0189E0C80ED11CC3
:1009F0007E01A090B804B090B90488E0882E912CB4
:100A0000712C66246394C5010E94650381117628C8
:100A1000660CE1E08E1A9108B1F7F70171927F013F
:100A2000CE16DF0631F78091B8049091B9040E9488
:100A30000B04813081F4F80181918F01811104C090
:100A4000EC15FD05C1F707C068E0CE010E944D031B
:100A500091E02885281390E0892FDF91CF911F9195
:100A60000F91FF90EF90DF90CF90BF90AF909F904D
:100A70008F907F906F900895BF92CF92DF92EF9208
:100A8000FF920F931F93CF93DF93EC016B018D8542
:100A9000811105C0CE010E940B04811105C01B8687
:100AA0001D861C8680E060C040E060EFCE010E94A1
:100AB000B80301E0E12CB12C11E0CE010E946503E6
:100AC000F82ECE010E94650391E0F91203C0813037
:100AD000B1F434C02E2D30E0F8121BC08B851817EE
:100AE00038F4FE01E20FF31F8381802341F402C03A
:100AF000811729F0F12C193058F41C8709C0FE0128
:100B0000EE0DF11D8381802B8383FF24F39409C0B4
:100B1000B12EFE01E20FF31F9381802F8095892370
:100B200083836F2DCE010E9489031F5F000F11F494
:100B3000E39401E087E08E1508F0BFCF113408F48C
:100B4000AECFBB86B11002C081E08D878B81882338
:100B500009F4A5CFDE011396F6012B968D918193B2
:100B6000CA17DB07D9F781E0DF91CF911F910F9171
:100B7000FF90EF90DF90CF90BF9008952F923F921B
:100B80004F925F926F927F928F929F92AF92BF929D
:100B9000CF92DF92EF92FF920F931F93CF93DF9349
:100BA000CDB7DEB7A4970FB6F894DEBF0FBECDBFAA
:100BB0004B015C01F42E9B01AC010E94BB12882307
:100BC00019F084ED93E027C024013501E89477F80B
:100BD0002FEF3FEF4FE75FE7C301B2010E94BB1267
:100BE00081110DC02FEF3FEF4FE75FE7C301B20167
:100BF0000E94F11018161CF488ED93E00CC02FEF42
:100C00003FEF4FE75FE4C501B4010E944912181697
:100C10002CF48CED93E00E94AB04B8C02FEF3FEFB3
:100C20004FE75FECC501B4010E94F11087FDF1CFE1
:100C300020E030E0A901C501B4010E94F11087FF56
:100C40000BC06DE280E094E00E9436013C01B7FAEF
:100C5000B094B7F8B09402C0612C712C10E060E041
:100C600070E080E09FE3F11641F020E030E040E2E8
:100C700051E40E94F6101F5FF6CFA50194010E9477
:100C800085104B015C010E9468116AA3C72ED82E03
:100C9000E92E19A2262F372F482F592F8E010F5DCD
:100CA0001F4F0BA31CA39AE0292E312C412C512C51
:100CB000CA01B901A20191010E942910605DF801E9
:100CC00062938F01211531054105510589F7CF0147
:100CD0000E94AB048301080F191FFF2009F455C0BF
:100CE0006AA17C2D8D2D9E2D0E9497119B01AC0138
:100CF000C501B4010E9484104B015C016EE280E0EA
:100D000094E00E943601080F191F8AE0282E312C2A
:100D1000412C512C20E030E040E251E4C501B40107
:100D20000E944E124B015C010E9468119B0140E041
:100D300050E019A2CBA0DCA0762E3AA3642EE52EBB
:100D4000CA01B901A20191010E942910605DF6015A
:100D500062936F01211531054105510589F7CF01D6
:100D60000E94AB04080F191F672D7AA1862D9E2DB6
:100D70000E9497119B01AC01C501B4010E9484102F
:100D80004B015C01FA94F110C5CFC801A4960FB6CF
:100D9000F894DEBF0FBECDBFDF91CF911F910F91B1
:100DA000FF90EF90DF90CF90BF90AF909F908F908B
:100DB0007F906F905F904F903F902F900895CF93CA
:100DC000DF93CDB7DEB729970FB6F894DEBF0FBE1D
:100DD000CDBFBE016F5F7F4F0E94CB04882389F097
:100DE0008D818F3361F020F48F3159F489E00CC08C
:100DF0008F3519F08F3739F004C08BE005C08AE0D9
:100E000003C080E001C08CE029960FB6F894DEBFE5
:100E10000FBECDBFDF91CF910895CF93DF93282FE1
:100E200030E0F901EE56FF4F8491F901E153FF4F95
:100E3000D491F901E554FF4FC491CC2391F0811175
:100E40000E948204EC2FF0E0EE0FFF1FEF54FF4FE3
:100E5000A591B491EC91ED2381E090E021F480E044
:100E600002C080E090E0DF91CF9108951F93CF936F
:100E7000DF93282F30E0F901EE56FF4F8491F901FE
:100E8000E153FF4FD491F901E554FF4FC491CC23B6
:100E9000C1F0162F81110E948204EC2FF0E0EE0FBA
:100EA000FF1FEA55FF4FA591B4919FB7F894111118
:100EB00004C08C91D095D82302C0EC91DE2BDC933A
:100EC0009FBFDF91CF911F910895CF93DF9390E063
:100ED000FC01E153FF4F2491FC01E554FF4F849145
:100EE000882361F190E0880F991FFC01E857FF4FBC
:100EF000C591D491FC01EA55FF4FA591B4916111C0
:100F000009C09FB7F8948881209582238883EC914B
:100F10002E230BC0623061F49FB7F8948881322F82
:100F2000309583238883EC912E2B2C939FBF06C092
:100F30008FB7F894E8812E2B28838FBFDF91CF9154
:100F400008958F929F92AF92BF92CF92DF92EF92CD
:100F5000FF921F93CF93DF93EC01809107018930BB
:100F600021F08F3F09F0F1C104C0E0EBF0E01491F3
:100F70006FC089E080930701E0EBF0E014911F3F20
:100F800009F4E3C1113009F440C030F1123009F026
:100F90005FC01092B0001092B1008091B0008260EA
:100FA0008093B0008091B10081608093B100E4EC47
:100FB000F0E0E491F0E0EE0FFF1FEA55FF4F85915E
:100FC00094919093FB038093FA03E8EDF0E0E491B1
:100FD000E093F90312E0B4C114BC15BC84B582607F
:100FE00084BD85B5816085BDE4ECF0E0E491F0E07E
:100FF000EE0FFF1FEA55FF4F85919491E8EDF0E069
:10100000E491E093C70410E09BC11092800010921D
:1010100081008091810088608093810080918100AF
:10102000816080938100E4ECF0E0E491F0E0EE0F69
:10103000FF1FEA55FF4F85919491E8EDF0E0E491B0
:10104000E093C60461E089E00E94650711E0A5C055
:1010500017FD7BC161E089E00E946507812F8D7FCC
:1010600009F09BC06E01E12CF12C60E072E18AE78F
:1010700090E0A70196010E944B1049015A01BA0164
:10108000A90141505109610971094F3F510561059D
:10109000710509F008F445C060E472E48FE090E067
:1010A000A70196010E944B10BA01A90141505109B4
:1010B000610971091230E9F44F3F5105610571056D
:1010C00009F008F4DDC060E970ED83E090E0A7016D
:1010D00096010E944B10BA01A901415051096109C2
:1010E00071094F3F51056105710509F020F583E055
:1010F0004DC04F3F510561057105A9F0A0F068E4AE
:1011000078EE81E090E0A70196010E944B10BA01B1
:10111000A9014150510961097109112309F4E1C084
:10112000D8C081E001C082E0111130C095B5987F30
:10113000892B85BD69C068E478EE81E090E0A70165
:1011400096010E944B10BA01A90141505109610951
:1011500071094F3F51056105710509F008F48EC012
:1011600064E274EF80E090E0A70196010E944B10CA
:10117000BA01A90141505109610971094F3F510557
:101180006105710511F008F07DC085E09091B10016
:10119000987F892B8093B10031C06E01E12CF12C36
:1011A00060E072E18AE790E0A70196010E944B108F
:1011B000BA01A9014150510961097109411551054F
:1011C00081E06807710580F068E478EE81E090E0E6
:1011D000A70196010E944B10BA01A9014150510983
:1011E0006109710983E001C081E0113039F4909107
:1011F0008100987F892B8093810018C01130B1F055
:10120000123049F11111A1C047BD8FEF9FEFDC01F2
:101210008093CC049093CD04A093CE04B093CF04DC
:1012200080916E00826080936E008FC05093890021
:10123000409388008FEF9FEFDC018093C804909368
:10124000C904A093CA04B093CB0480916F0082605C
:1012500080936F007AC04093B3008FEF9FEFDC0163
:101260008093FC039093FD03A093FE03B093FF03D0
:101270008091700082608093700067C084E086CFA8
:1012800082E084CF62E17AE780E090E0A7019601F6
:101290000E944B10BA01A90141505109610971091D
:1012A0004F3F51056105710591F088F0D501C401EA
:1012B0002AE0B595A795979587952A95D1F7AC0122
:1012C000BD01415051096109710987E05FCF86E096
:1012D0005DCF4F3F51056105710509F098F684E037
:1012E00023CF4F3F51056105710541F138F162E1AE
:1012F0007AE780E090E0A70196010E944B10BA01C6
:10130000A90141505109610971094F3F510561051A
:10131000710591F088F0D501C4013AE0B595A79523
:10132000979587953A95D1F7AC01BD014150510988
:101330006109710985E0FACE84E0F8CE83E0F6CE4B
:1013400061E089E00E9465078DCEDF91CF911F910A
:10135000FF90EF90DF90CF90BF90AF909F908F90D5
:1013600008958F929F92AF92BF92CF92DF92EF92A9
:10137000FF926B017C010E94DC014B015C01C114F6
:10138000D104E104F104F1F00E94DC01DC01CB01A5
:1013900088199909AA09BB09883E9340A105B1059E
:1013A00070F321E0C21AD108E108F10888EE880E36
:1013B00083E0981EA11CB11CC114D104E104F10406
:1013C00019F7DDCFFF90EF90DF90CF90BF90AF90F7
:1013D0009F908F900895CF92DF92EF92FF920F939C
:1013E0001F93CF93DF93CDB7DEB7C054D1400FB674
:1013F000F894DEBF0FBECDBF2FB7F8948091F503F0
:101400009091F603A091F703B091F8032FBF40919C
:10141000A6045091A7046091A8047091A9048C01BE
:101420009D01041B150B260B370BB901A801403D8C
:1014300057406105710518F48091AE04CAC08093CD
:10144000A6049093A704A093A804B093A9041092B3
:10145000A1041092A00410929F0410929E04109276
:101460009D0462E08091A2040E94650761E070E043
:1014700080E090E00E94B10961E08091A2040E94A6
:10148000650760E08091A2040E9436078091A30462
:101490008551823028F48BE291E10197F1F706C083
:1014A00064E170E080E090E00E94B10962E0809128
:1014B000A2040E9465078091AF0490E082309105FC
:1014C00038F0880F991F880F991F05970197F1F73A
:1014D000F89480E00E9442046F3F7F4F8F4F9F4FF0
:1014E00021F41092AE04789441C081E00E9442043D
:1014F0006F3F7F4F8F4F9F4FA1F38E010F5F1F4FA5
:101500006E018FEBC81A8EEFD80A780180E00E9436
:101510004204F701608371838283938381E00E9498
:101520004204F7016483758386839783F8E0EF0EA6
:10153000F11CEC14FD0451F7789420E030E0F80140
:10154000C080D180E280F3804481558166817781BB
:10155000FFEFCF16DF06EF06FF0631F04F3F8FEFAC
:1015600058076807780721F41092AE0480E031C074
:10157000F90183E0F595E7958A95E1F7E356FB4F8E
:101580008081880FC416D506E606F70608F4816048
:1015900080832F5F3F4F085F1F4F2832310579F658
:1015A0002091A10430E040919D0480919E0490E040
:1015B000840F911D40919F04840F911D4091A004C0
:1015C000840F911D99272817390771F681E08093C0
:1015D000AE04C05CDE4F0FB6F894DEBF0FBECDBFC9
:1015E000DF91CF911F910F91FF90EF90DF90CF90FF
:1015F0000895CF93DF93CDB7DEB761970FB6F89418
:10160000DEBF0FBECDBF789484B5826084BD84B543
:10161000816084BD85B5826085BD85B5816085BDED
:1016200080916E00816080936E00109281008091A5
:10163000810082608093810080918100816080932D
:101640008100809180008160809380008091B10052
:1016500084608093B1008091B00081608093B0007D
:1016600080917A00846080937A0080917A00826011
:1016700080937A0080917A00816080937A008091D3
:101680007A00806880937A001092C10060E085E063
:101690000E94650760E086E00E94650760E08EE0DA
:1016A0000E94650760E084E00E94650760E080E0DA
:1016B0000E94650760E083E10E94650760E082E0C8
:1016C0000E94650760E083E00E94650761E087E0B3
:1016D0000E94650761E089E00E94650761E08AE099
:1016E0000E94650761E08BE00E94650761E081E090
:1016F0000E94650761E08CE00E94650761E082E17D
:101700000E946507E0911004F091110482E080834B
:10171000E0910C04F0910D041082E0910E04F09120
:101720000F048FEC808310921804E0911404F09160
:10173000150486E08083E0911204F0911304808107
:1017400080618083E0911204F091130480818860AD
:101750008083E0911204F09113048081806880837B
:10176000E0911204F091130480818F7D808362E008
:101770008091A2040E9465072FB7F8948091F50329
:101780009091F603A091F703B091F8032FBF805D0D
:101790009740A109B1098093A6049093A704A09350
:1017A000A804B093A90487E38093AF048DE990E087
:1017B0009093010180930001809169008C7F826089
:1017C00080936900E89AE091B804F091B904138617
:1017D00015861486DF011B9633961E92AE17BF073F
:1017E000E1F71092B6041092B70401E0BE016F5FFA
:1017F0007F4F8091B8049091B9040E943C058823E2
:1018000009F465C067E0CE0101960E944D039885FA
:101810008913ECCF8091B004811127C08091B80466
:101820009091B9040E940B04BE016F5F7F4F8091BD
:10183000B8049091B9040E94EC0340E064EB8091FD
:10184000B8049091B9040E94B8038091B8049091B3
:10185000B9040E946503182F8091B8049091B904CF
:101860000E940B04112309F4BDC11091B3048981B6
:10187000803109F4EDC2CE0101960E94DF06811786
:1018800018F48091B30409C08981803111F48CE08F
:1018900004C0CE0101960E94DF068093B3048091BC
:1018A000B6048F5F8093B6048981883209F49DC1A4
:1018B00038F4803109F499C1823209F097CF95C18B
:1018C0008B3309F492C1823409F090CF8EC161E06C
:1018D00086E00E94360780E291E00E94BD0460E04D
:1018E00085E00E9436078EE591E00E94BD041092CB
:1018F000E30385E991E00E94BD0480ED97E00E943A
:10190000A10789E00E94AF0164E670E080E090E00A
:101910000E94B10988EB9BE00E94A10789E00E9428
:10192000AF0164E670E080E090E00E94B10980EAD7
:101930009FE00E94A10789E00E94AF0164E670E089
:1019400080E090E00E94B10933243394F2E08F2EBE
:10195000912C01E010E0A3E6AA2EB12C85E00E94B4
:101960000D07181619062CF4109204018BEC91E067
:1019700004C0309204018DEE91E00E94BD0486E027
:101980000E940D07181619062CF43092E2038FE01E
:1019900092E004C01092E20382E392E00E94BD0450
:1019A000909104018091E203992339F0811111C0D3
:1019B000109206011092050110C0811105C010930C
:1019C00006010093050109C090920601809205016D
:1019D00004C0B0920601A09205018091050190918A
:1019E00006018130910571F02CF4892B89F485E58D
:1019F00092E010C08230910541F0039749F48BEEDC
:101A000092E008C087E892E005C089EB92E002C04E
:101A10008DE193E00E94BD040E94EB098823C1F18F
:101A20008091A3048B30A0F18D30A8F085518230D5
:101A300078F560919D0470919E047627672776273C
:101A400080E090E00E9497112DEC3CEC4CEC5DE3C3
:101A50000E944E1221C060919E0470E080E090E0F0
:101A60000E9499112DEC3CEC4CEC5DE30E944E126F
:101A70006B017C0160919D0470E080E090E00E9429
:101A800099119B01AC01C701B6010E94851004C0E9
:101A900060E070E080EC9FE76093EC037093ED03EF
:101AA0008093EE039093EF030E94EB09882309F4DF
:101AB0006DC08091A3048C3009F446C018F48B30BB
:101AC000D1F064C08551823008F060C0F0909F046E
:101AD0006F2D6F7770E0762F66278091A004682BBA
:101AE00080E090E00E9497112DEC3CEC4CEC5DE323
:101AF0000E944E1247C060919F0470E080E090E029
:101B00000E9497116B017C017090A00477FE0AC0BF
:101B10009B01AC0160E070E080E89FEB0E948410C4
:101B20006B017C01672D6F7070E080E090E00E9497
:101B300099112DEC3CEC4CEC5DE30E944E12A70198
:101B400096010E94851026C0F0909F046091A00429
:101B50006F7070E080E090E00E9499112DEC3CECF9
:101B60004CEC5DE30E944E122B013C016F2D70E0A6
:101B700080E090E00E9497119B01AC01C301B2018B
:101B80000E948510F7FE06C0905804C060E070E027
:101B900080EC9FE76093E8037093E9038093EA0386
:101BA0009093EB03E091B804F091B9041386158685
:101BB0001486DF011B96CF0103961E92A817B90762
:101BC000E1F7BE01665F7F4FCF010E943C0588238D
:101BD00091F067E0CE010A960E944D03998989131E
:101BE0000AC03AC10093B00440CE8091B7048F5F21
:101BF0008093B704FBCD60E070E08EEF92EC6093D1
:101C0000E4037093E5038093E6039093E7038091E8
:101C1000B8049091B9040E940B0440E06CEC8091F0
:101C2000B8049091B9040E94B8034091B00464E4F0
:101C30008091B8049091B9040E94B8038091B404D3
:101C4000882309F45DC0E091B304E950E33040F427
:101C5000F0E0EE0FFF1FE85FFE4FC080D18004C0B0
:101C60008EEEC82E82E0D82E8091B504882381F1B3
:101C70008091B00481112CC08FB7F8944090F50387
:101C80005090F6036090F7037090F8038FBF0D2C0F
:101C9000000CEE08FF088091B8049091B9040E94EE
:101CA0006503813069F12FB7F8948091F503909125
:101CB000F603A091F703B091F8032FBF8C199D098B
:101CC000AE09BF0984159505A605B70520F318C010
:101CD0008091B104882329F060E08091B2040E94D1
:101CE0003607B601DD0C880B990B0E94B109809173
:101CF000B104882329F061E08091B2040E94360784
:101D00004090EC035090ED036090EE037090EF0371
:101D1000A3019201C301B2010E94BB12811111C043
:101D2000C090E803D090E903E090EA03F090EB0361
:101D3000A7019601C701B6010E94BB12882309F4CE
:101D400046C081EB93E00E94BD048FE693E00E94C1
:101D5000AB046091EC037091ED038091EE039091E0
:101D6000EF0342E00E94BE058AE793E00E94AB04C5
:101D70008EE793E00E94AB046091E8037091E90361
:101D80008091EA039091EB0342E00E94BE0583E953
:101D900093E00E94AB0488E993E00E94AB04609159
:101DA000E4037091E5038091E6039091E70342E03C
:101DB0000E94BE0583E993E00E94BD0468EE73E0D3
:101DC00080E090E00E94B1090E94A501C7CD20E00B
:101DD00030E040E752E4C301B2010E944912709022
:101DE000E3031816D4F020E030E048EC51E4C701DA
:101DF000B6010E944912181684F020E030E048EC49
:101E000051E46091E4037091E5038091E6039091C1
:101E1000E7030E94491218166CF4711096CF61E026
:101E200087E00E9436078AE393E00E94BD04309267
:101E3000E3038BCF772009F488CF60E087E00E942E
:101E4000360785E991E00E94BD041092E3037DCF3F
:101E50001D3008F016CD1BCDBE016F5F7F4FCE0148
:101E60000A960E94CB04882309F43FC02A8130E0FF
:101E7000C901982F8827990F990F990F698128E038
:101E8000629FB00111249C01262B372B8A8580315B
:101E9000C9F4688570E08F81AB01481B5109CA0104
:101EA0009695982F8827979587950E9415106052D0
:101EB0007109207F53E0220F331F5A95E1F7620F1B
:101EC000731F01C0B901613854EE75070CF493CE4D
:101ED000072E000C880B990B0E94991120E030E02E
:101EE00040E05CE30E944E128ACE60E874EEEBCFD5
:101EF000109203041092020488EE93E0A0E0B0E098
:101F00008093040490930504A0930604B0930704FF
:101F100082E191E0909301048093000485EC90E0CD
:101F200090930D0480930C0484EC90E090930F0444
:101F300080930E0480EC90E0909311048093100441
:101F400081EC90E0909313048093120482EC90E073
:101F5000909315048093140486EC90E090931704FA
:101F6000809316041092190410921A0410921B0404
:101F700010921C0460E084E00E946507E3EDF0E04D
:101F8000E491E093D004EFEBF0E0E491F0E0EE0FA9
:101F9000FF1FEF54FF4F859194919093D20480934B
:101FA000D1041092DB041092DD041092DC04EBEDFE
:101FB000F4E0129284E0E33DF807D9F780ED94E075
:101FC0009093B9048093B8041092B6041092B704A9
:101FD0001092B00489E08093B30481E08093B4044C
:101FE0008093B5041092C5041092C4041092B104F9
:101FF0008EE08093A20486E18093A304EDEDF0E0EF
:10200000E491E093A404E9ECF0E0E491E093A5040A
:1020100080E89EE3A0E0B0E08093AA049093AB0434
:10202000A093AC04B093AD04089597FB072E16F46B
:10203000009407D077FD09D00E946A1007FC05D0F4
:102040003EF4909581959F4F0895709561957F4FCF
:102050000895A1E21A2EAA1BBB1BFD010DC0AA1FE9
:10206000BB1FEE1FFF1FA217B307E407F50720F001
:10207000A21BB30BE40BF50B661F771F881F991F7C
:102080001A9469F760957095809590959B01AC01C5
:10209000BD01CF010895052E97FB1EF400940E9408
:1020A000621057FD07D00E94291007FC03D04EF4A0
:1020B0000C94621050954095309521953F4F4F4FAD
:1020C0005F4F089590958095709561957F4F8F4FE4
:1020D0009F4F0895AA1BBB1B51E107C0AA1FBB1F3E
:1020E000A617B70710F0A61BB70B881F991F5A95A4
:1020F000A9F780959095BC01CD010895EE0FFF1FC3
:102100000590F491E02D09945058BB27AA270E940E
:102110009C100C940F120E94011238F00E940812B9
:1021200020F039F49F3F19F426F40C94FE110EF4BC
:10213000E095E7FB0C94F811E92F0E94201258F368
:10214000BA17620773078407950720F079F4A6F59C
:102150000C9442120EF4E0950B2EBA2FA02D0B0119
:10216000B90190010C01CA01A0011124FF27591BDC
:1021700099F0593F50F4503E68F11A16F040A22FE2
:10218000232F342F4427585FF3CF46953795279553
:10219000A795F0405395C9F77EF41F16BA0B620B52
:1021A000730B840BBAF09150A1F0FF0FBB1F661F99
:1021B000771F881FC2F70EC0BA0F621F731F841FDC
:1021C00048F4879577956795B795F7959E3F08F002
:1021D000B0CF9395880F08F09927EE0F97958795C4
:1021E00008950E94D41108F481E008950E940A1114
:1021F0000C940F120E94081258F00E94011240F035
:1022000029F45F3F29F00C94F81151110C944312FA
:102210000C94FE110E94201268F39923B1F3552308
:1022200091F3951B550BBB27AA27621773078407E9
:1022300038F09F5F5F4F220F331F441FAA1FA9F37F
:1022400035D00E2E3AF0E0E832D091505040E6956D
:10225000001CCAF72BD0FE2F29D0660F771F881FCE
:10226000BB1F261737074807AB07B0E809F0BB0BC1
:10227000802DBF01FF2793585F4F3AF09E3F5105D5
:1022800078F00C94F8110C9443125F3FE4F3983EFD
:10229000D4F3869577956795B795F7959F5FC9F7BE
:1022A000880F911D9695879597F90895E1E0660F3F
:1022B000771F881FBB1F621773078407BA0720F0B8
:1022C000621B730B840BBA0BEE1F88F7E095089521
:1022D0000E94281288F09F5798F0B92F9927B7517C
:1022E000B0F0E1F0660F771F881F991F1AF0BA95BA
:1022F000C9F714C0B13091F00E944212B1E00895C4
:102300000C944212672F782F8827B85F39F0B93FB5
:10231000CCF3869577956795B395D9F73EF490956C
:102320008095709561957F4F8F4F9F4F0895E894EA
:1023300009C097FB3EF490958095709561957F4F0D
:102340008F4F9F4F9923A9F0F92F96E9BB279395BB
:10235000F695879577956795B795F111F8CFFAF4CB
:10236000BB0F11F460FF1BC06F5F7F4F8F4F9F4FFC
:1023700016C0882311F096E911C0772321F09EE85A
:10238000872F762F05C0662371F096E8862F70E0C0
:1023900060E02AF09A95660F771F881FDAF7880F9A
:1023A0009695879597F90895990F0008550FAA0BF0
:1023B000E0E8FEEF16161706E807F907C0F0121658
:1023C0001306E407F50798F0621B730B840B950B5B
:1023D00039F40A2661F0232B242B252B21F40895B0
:1023E0000A2609F4A140A6958FEF811D811D08954D
:1023F00097F99F6780E870E060E008959FEF80ECB8
:10240000089500240A94161617061806090608955A
:1024100000240A9412161306140605060895092EC0
:102420000394000C11F4882352F0BB0F40F4BF2B2F
:1024300011F460FF04C06F5F7F4F8F4F9F4F08956F
:1024400057FD9058440F551F59F05F3F71F0479565
:10245000880F97FB991F61F09F3F79F0879508954A
:10246000121613061406551FF2CF4695F1DF08C069
:10247000161617061806991FF1CF86957105610586
:1024800008940895E894BB2766277727CB0197F92E
:1024900008950E94D41108F48FEF08950E946112EC
:1024A0000C940F120E94011238F00E94081220F0C2
:1024B000952311F00C94F8110C94FE1111240C9436
:1024C00043120E94201270F3959FC1F3950F50E0C4
:1024D000551F629FF001729FBB27F00DB11D639FD6
:1024E000AA27F00DB11DAA1F649F6627B00DA11D7C
:1024F000661F829F2227B00DA11D621F739FB00D22
:10250000A11D621F839FA00D611D221F749F332791
:10251000A00D611D231F849F600D211D822F762F2A
:102520006A2F11249F5750409AF0F1F088234AF007
:10253000EE0FFF1FBB1F661F771F881F9150504073
:10254000A9F79E3F510580F00C94F8110C944312AA
:102550005F3FE4F3983ED4F3869577956795B795FA
:10256000F795E7959F5FC1F7FE2B880F911D969514
:10257000879597F908950E94D411880B990B0895B7
:0E25800081E090E0F8940C94C512F894FFCF1F
:10258E009E009E00010100FF5E00BC00770100006E
:10259E00000036019F00CD008301FE00DC00F0003C
:1025AE002D2D2D2D2D2D2D2D2D2D2D2D2D2D2D2D4D
:1025BE002D20537769746368696E6720446548758A
:1025CE006D69646966696572204F4E202D2D2D2D23
:1025DE002D2D2D2D2D2D2D2D2D2D2D2D2D002D2D4A
:1025EE002D2D2D2D2D2D2D2D2D2D2D2D2D2D2D201A
:1025FE00537769746368696E672050756D70204FEC
:10260E004646202D2D2D2D2D2D2D2D2D2D2D2D2DC7
:10261E002D2D2D2D002D2D2D2D2D2D2D2D2D2D2D09
:10262E002D2D2D2D2D2D20537769746368696E67BE
:10263E002046616E204F4646202D2D2D2D2D2D2D01
:10264E002D2D2D2D2D2D2D2D2D2D003C2D2D2D20D7
:10265E0053494E4B2069732041424F5645204C4FF3
:10266E0057204C4556454C202D2D2D3E003C2D2DF2
:10267E002D2053494E4B2069732042454C4F572015
:10268E004C4F57204C4556454C202D2D2D3E003C91
:10269E002D2D2D2053494E4B2069732041424F560C
:1026AE00452048494748204C4556454C202D2D2D58
:1026BE003E003C2D2D2D2053494E4B206973204258
:1026CE00454C4F572048494748204C4556454C20CD
:1026DE002D2D2D3E002D2D2D2D2D2D2D2D2D2D2D38
:1026EE002D2D2D2D2D2D2053494E4B206973204518
:1026FE004D505459202D2D2D2D2D2D2D2D2D2D2D73
:10270E002D2D2D2D2D2D002D2D2D2D2D2D2D2D2D18
:10271E002D2D2D2D2D2D2D2D2053494E4B206973F2
:10272E002046494C4C494E47202D2D2D2D2D2D2D1B
:10273E002D2D2D2D2D2D2D2D002D2D2D2D2D2D2DE8
:10274E002D2D2D2D2D2D2D2D2D2D2053494E4B2044
:10275E0069732046554C4C202D2D2D2D2D2D2D2DB4
:10276E002D2D2D2D2D2D2D2D2D2D002D2D2D2D2DB8
:10277E002D2D2D2D2D2D2D2D2D2D2D2D2053494E25
:10278E004B20697320445241494E494E47202D2D0E
:10279E002D2D2D2D2D2D2D2D2D2D2D2D0057415225
:1027AE004E494E4721202D202D202D20556E6B6E2B
:1027BE006F776E204552524F52002D2D2D2D2D2DFF
:1027CE002D2D2D2D2D2D2D2D2D2D2D205377697445
:1027DE006368696E672046616E204F4E202D2D2D49
:1027EE002D2D2D2D2D2D2D2D2D2D2D2D2D2D00481D
:1027FE00756D69646974793A200020250900444892
:10280E00542D32322054656D706572617475726527
:10281E003A2000202A4320004453313842323020DF
:10282E0054656D70657261747572652069733A20B6
:10283E00004661696C656420746F20726561642066
:10284E0066726F6D204448542073656E736F7221EB
:10285E00000D0A006E616E00696E66006F7666008E
:00000001FF
